:020000040800F2
:10000000005000202D060008C5050008CD05000899
:10001000D5050008DD050008E50500080000000022
:10002000000000000000000000000000714D00080A
:10003000ED05000800000000514F0008CD26000823
:1000400075060008750600087506000875060008A4
:100050007506000875060008750600087506000894
:100060007506000875060008750600087506000884
:100070007506000875060008750600087506000874
:100080007506000875060008750600087506000864
:100090007506000875060008750600087506000854
:1000A00075060008F90500087506000875060008C1
:1000B0007506000875060008750600087506000834
:1000C0007506000875060008750600087506000824
:1000D000750600080D06000875060008750600087C
:1000E0007506000875060008750600080000000087
:1000F0000000000000000000000000000000000000
:0C01000000000000000000005FF808F1A3
:1001100010B5054C237833B9044B13B10448AFF341
:1001200000800123237010BD60000020000000004B
:100130004456000808B5034B1BB103490348AFF30D
:10014000008008BD00000000640000204456000844
:10015000034613F8012B002AFBD1181A0138704707
:1001600080B500AF00F088FA00F03EF800F0A2F889
:1001700000F076F802F0C4FA114A0121012002F0E1
:10018000B4FB03460F4A13600F4A00210F4802F0E8
:10019000FFFA03460E4A13600E4A00210E4802F091
:1001A000F7FA03460D4A13600D4A00210A4802F08F
:1001B000EFFA03460B4A136002F0C4FA00BFFDE7F2
:1001C00060570008D0000020F4560008E102000843
:1001D000C4000020185700083D030008C800002094
:1001E0003C570008CC00002080B590B000AF07F16C
:1001F000180328220021184605F03EF93B1D002275
:100200001A605A609A60DA601A610223BB610123A6
:10021000BB621023FB6200237B6307F118031846BF
:1002200000F096FD0346002B01D000F0C7F80F2325
:100230007B600023BB600023FB6000233B61002345
:100240007B613B1D0021184601F004F80346002B9A
:1002500001D000F0B3F800BF4037BD4680BD0000BC
:1002600080B500AF114B124A1A60104B4FF4E132C7
:100270005A600E4B00229A600C4B0022DA600B4B46
:1002800000221A61094B0C225A61084B00229A6124
:10029000064B0022DA61054801F0D8FB0346002B2B
:1002A00001D000F08BF800BF80BD00BF7C000020B3
:1002B0000038014080B483B000AF084B9B69074A07
:1002C00043F004039361054B9B6903F004037B60D7
:1002D0007B6800BF0C37BD4680BC704700100240F1
:1002E00080B584B000AF7860114BFB60114BBB60F0
:1002F000F868FFF72DFF03469AB24FF0FF33F96815
:100300000D4801F0F3FB4FF47A6000F0E7F9B868AC
:10031000FFF71EFF03469AB24FF0FF33B968064855
:1003200001F0E4FB012002F0C5FA00BFDCE700BFEA
:1003300090560008AC5600087C00002080B584B0C0
:1003400000AF7860114BFB60114BBB60F868FFF7A2
:10035000FFFE03469AB24FF0FF33F9680D4801F0F3
:10036000C5FB4FF4FA7000F0B9F9B868FFF7F0FE7A
:1003700003469AB24FF0FF33B968064801F0B6FB66
:10038000012002F097FA00BFDCE700BFC456000866
:10039000AC5600087C00002080B582B000AF7860C9
:1003A0007B681B68044A934201D100F07BF900BFCF
:1003B0000837BD4680BD00BF002C014080B400AFAF
:1003C00072B600BF00BFFDE780B584B000AF184B28
:1003D0009B69174A43F001039361154B9B6903F036
:1003E0000103BB60BB68124BDB69114A43F08053C9
:1003F000D3610F4BDB6903F080537B607B68002285
:100400000F216FF0010000F042FA0A4B5B68FB60BD
:10041000FB6823F0E063FB60FB6843F00073FB6064
:10042000044AFB68536000BF1037BD4680BD00BF63
:10043000001002400000014080B588B000AF786035
:1004400007F1100300221A605A609A60DA607B6834
:100450001B68204A934239D11F4B9B691E4A43F4C3
:10046000804393611C4B9B6903F48043FB60FB68F2
:10047000194B9B69184A43F004039361164B9B691F
:1004800003F00403BB60BB684FF400733B610223BD
:100490007B610323FB6107F1100319460F4800F04D
:1004A000D3FA4FF480633B6100237B610023BB617F
:1004B00007F110031946094800F0C6FA0022052189
:1004C000252000F0E4F9252000F0FDF900BF2037D9
:1004D000BD4680BD003801400010024000080140C8
:1004E00080B58CB000AF78600023BB6200237B62D4
:1004F000002387F82F302E4B9B692D4A43F400636D
:1005000093612B4B9B6903F40063BB60BB6807F1ED
:100510000C0207F110031146184601F00BF800F029
:10052000F5FFB862BB6A234AA2FB03239B0C013B85
:100530007B62214B214A1A601F4B40F2E732DA609E
:100540001D4A7B6A53601C4B00221A611A4B002221
:100550009A60194B00229A61174801F039F8034656
:1005600087F82F3097F82F30002B1BD1124801F05D
:1005700087F8034687F82F3097F82F30002B11D1DA
:10058000192000F0A0F97B680F2B08D800227968A9
:10059000192000F07CF90A4A7B68136002E001230D
:1005A00087F82F3097F82F3018463037BD4680BD7A
:1005B0000010024083DE1B43D4000020002C0140C9
:1005C0000400002080B400AF00BFFDE780B400AF9E
:1005D00000BFFDE780B400AF00BFFDE780B400AF0F
:1005E00000BFFDE780B400AF00BFFDE780B400AFFF
:1005F00000BFBD4680BC704780B500AF024801F027
:1006000091F800BF80BD00BFD400002080B500AFCE
:10061000024801F0F7FA00BF80BD00BF7C00002057
:1006200080B400AF00BFBD4680BC7047FFF7F8FF45
:100630000B480C490C4A002302E0D458C450043340
:10064000C4188C42F9D3094A094C002301E0136015
:100650000432A242FBD304F06DFFFFF781FD704727
:100660000000002060000020AC570008600000205F
:10067000481C0020FEE7000080B500AF084B1B6857
:10068000074A43F010031360032000F0F5F80F2031
:10069000FFF726FFFFF798FE0023184680BD00BF36
:1006A0000020024080B400AF054B1B781A46054B72
:1006B0001B681344034A136000BFBD4680BC7047EB
:1006C000080000201C01002080B400AF024B1B6812
:1006D0001846BD4680BC70471C01002080B584B020
:1006E00000AF7860FFF7F0FFB8607B68FB60FB68E5
:1006F000B3F1FF3F05D00A4B1B781A46FB68134441
:10070000FB6000BFFFF7E0FF0246BB68D31AFA6840
:100710009A42F7D800BF00BF1037BD4680BD00BF6A
:100720000800002080B485B000AF78607B6803F0DB
:100730000703FB600C4BDB68BB60BA684FF6FF0336
:100740001340BB60FB681A02BB68134343F0BF63EE
:1007500043F40033BB60044ABB68D36000BF143766
:10076000BD4680BC704700BF00ED00E080B400AF24
:10077000044BDB681B0A03F007031846BD4680BC28
:10078000704700BF00ED00E080B483B000AF0346C7
:10079000FB7197F90730002B0BDBFB7903F01F028D
:1007A000064997F907305B09012000FA02F241F887
:1007B000232000BF0C37BD4680BC704700E100E03D
:1007C00080B483B000AF03463960FB7197F90730FE
:1007D000002B0ADB3B68DAB20C4997F907301201AB
:1007E000D2B20B4483F800230AE03B68DAB208492E
:1007F000FB7903F00F03043B1201D2B20B441A76CB
:1008000000BF0C37BD4680BC704700BF00E100E070
:1008100000ED00E080B489B000AFF860B9607A60A4
:10082000FB6803F00703FB61FB69C3F10703042BBB
:1008300028BF0423BB61FB690433062B02D9FB6983
:10084000033B00E000237B614FF0FF32BB6902FAFB
:1008500003F3DA43BB681A407B699A404FF0FF31DB
:100860007B6901FA03F3D9437B680B4013431846B5
:100870002437BD4680BC704780B582B000AF786039
:100880007868FFF74FFF00BF0837BD4680BD80B5D1
:1008900086B000AF0346B9607A60FB7300237B61CA
:1008A000FFF764FF78617A68B9687869FFF7B2FF8B
:1008B000024697F90F3011461846FFF781FF00BF37
:1008C0001837BD4680BD80B582B000AF0346FB71CE
:1008D00097F907301846FFF757FF00BF0837BD46A6
:1008E00080BD80B485B000AF78600023FB737B6867
:1008F00093F82130DBB2022B08D07B6804229A6384
:100900007B68002283F82020012320E07B681B689D
:100910001A687B681B6822F00E021A607B681B68ED
:100920001A687B681B6822F001021A607B681A6CE7
:100930007B68DB6B012101FA02F25A607B680122BD
:1009400083F821207B68002283F82020FB7B184657
:100950001437BD4680BC704780B584B000AF786066
:100960000023FB737B6893F82130DBB2022B05D0A8
:100970007B6804229A630123FB7351E07B681B6848
:100980001A687B681B6822F00E021A607B681B687D
:100990001A687B681B6822F001021A607B681B687A
:1009A000224A934229D07B681B68214A934222D075
:1009B0007B681B681F4A93421AD07B681B681E4ADB
:1009C000934212D07B681B681C4A93420AD07B6812
:1009D0001B681B4A934202D14FF480130EE04FF084
:1009E00080730BE04FF4803308E04FF4805305E050
:1009F0004FF4807302E0102300E00123114A53609A
:100A00007B68012283F821207B68002283F8202064
:100A10007B685B6B002B03D07B685B6B78689847C7
:100A2000FB7B18461037BD4680BD00BF0800024062
:100A30001C000240300002404400024058000240C6
:100A40006C0002400000024080B48BB000AF7860C0
:100A5000396000237B6200233B6269E101227B6AEB
:100A600002FA03F3FB613B681B68FA691340BB6140
:100A7000BA69FB699A4240F058813B685B689A4AC0
:100A800093425ED0984A934275D8984A934258D080
:100A9000964A93426FD8964A934252D0944A9342D0
:100AA00069D8944A93424CD0924A934263D8924A6E
:100AB000934246D0904A93425DD8122B2AD8122BEB
:100AC00059D801A252F823F0430B00081D0B00086F
:100AD0002F0B0008710B0008770B0008770B00083C
:100AE000770B0008770B0008770B0008770B0008DE
:100AF000770B0008770B0008770B0008770B0008CE
:100B0000770B0008770B0008770B0008250B00080F
:100B1000390B0008794A934213D02CE03B68DB681C
:100B20003B6229E03B68DB6804333B6224E03B68BE
:100B3000DB6808333B621FE03B68DB680C333B62D9
:100B40001AE03B689B68002B02D104233B6213E050
:100B50003B689B68012B05D108233B627B68FA69DF
:100B60001A6109E008233B627B68FA695A6103E075
:100B700000233B6200E000BFBB69FF2B01D87B680C
:100B800001E07B6804337B61BB69FF2B02D87B6A81
:100B90009B0002E07B6A083B9B003B617B691A6813
:100BA0000F213B6901FA03F3DB431A40396A3B69C1
:100BB00001FA03F31A437B691A603B685B6803F030
:100BC0008053002B00F0B1804D4B9B694C4A43F0A1
:100BD000010393614A4B9B6903F00103BB60BB684F
:100BE000484A7B6A9B08023352F82330FB607B6AD9
:100BF00003F003039B000F2202FA03F3DB43FA68BE
:100C00001340FB607B68404A934213D07B683F4AA5
:100C100093420DD07B683E4A934207D07B683D4AA1
:100C2000934201D1032306E0042304E0022302E0FF
:100C3000012300E000237A6A02F00302920093404D
:100C4000FA681343FB602F497B6A9B080233FA68FA
:100C500041F823203B685B6803F48013002B06D027
:100C60002D4B9A682C49BB6913438B6006E02A4BD5
:100C70009A68BB69DB43284913408B603B685B681B
:100C800003F40013002B06D0234BDA682249BB691A
:100C90001343CB6006E0204BDA68BB69DB431E4997
:100CA0001340CB603B685B6803F40033002B06D035
:100CB000194B5A681849BB6913434B6006E0164B41
:100CC0005A68BB69DB43144913404B603B685B685F
:100CD00003F48033002B21D00F4B1A680E49BB69F7
:100CE00013430B6021E000BF000032100000311000
:100CF000000022100000211000001210000011104E
:100D0000001002400000014000080140000C0140BA
:100D10000010014000140140000401400B4B1A6810
:100D2000BB69DB43094913400B607B6A01337B627B
:100D30003B681A687B6A22FA03F3002B7FF48EAEBD
:100D400000BF00BF2C37BD4680BC70470004014087
:100D500080B586B000AF78607B68002B01D101239D
:100D600072E27B681B6803F00103002B00F08780B0
:100D7000924B5B6803F00C03042B0CD08F4B5B6829
:100D800003F00C03082B12D18C4B5B6803F4803307
:100D9000B3F5803F0BD1894B1B6803F40033002B64
:100DA0006CD07B685B68002B68D101234CE27B68C8
:100DB0005B68B3F5803F06D1804B1B687F4A43F4E4
:100DC000803313602EE07B685B68002B0CD17B4B7B
:100DD0001B687A4A23F480331360784B1B68774A88
:100DE00023F4802313601DE07B685B68B3F5A02FBC
:100DF0000CD1724B1B68714A43F4802313606F4B14
:100E00001B686E4A43F4803313600BE06B4B1B6826
:100E10006A4A23F480331360684B1B68674A23F4E3
:100E2000802313607B685B68002B13D0FFF74CFCBA
:100E3000386108E0FFF748FC02463B69D31A642B8F
:100E400001D9032300E25D4B1B6803F40033002B40
:100E5000F0D014E0FFF738FC386108E0FFF734FC0D
:100E600002463B69D31A642B01D90323ECE1534BAF
:100E70001B6803F40033002BF0D100E000BF7B6857
:100E80001B6803F00203002B63D04C4B5B6803F03C
:100E90000C03002B0BD0494B5B6803F00C03082BB1
:100EA0001CD1464B5B6803F48033002B16D1434BB7
:100EB0001B6803F00203002B05D07B681B69012B24
:100EC00001D00123C0E13D4B1B6823F0F8027B6891
:100ED0005B69DB00394913430B603AE07B681B69AF
:100EE000002B20D0364B01221A60FFF7EDFB386152
:100EF00008E0FFF7E9FB02463B69D31A022B01D950
:100F00000323A1E12D4B1B6803F00203002BF0D05B
:100F10002A4B1B6823F0F8027B685B69DB002749DA
:100F200013430B6015E0264B00221A60FFF7CCFB41
:100F3000386108E0FFF7C8FB02463B69D31A022B71
:100F400001D9032380E11D4B1B6803F00203002B32
:100F5000F0D17B681B6803F00803002B3AD07B6854
:100F60009B69002B19D0174B01221A60FFF7ACFBCD
:100F7000386108E0FFF7A8FB02463B69D31A022B51
:100F800001D9032360E10D4B5B6A03F00203002BE0
:100F9000F0D0012000F0FEFA1CE00A4B00221A609B
:100FA000FFF792FB38610FE0FFF78EFB02463B69CB
:100FB000D31A022B08D9032346E100BF00100240D8
:100FC0000000424280044242924B5B6A03F00203FB
:100FD000002BE9D17B681B6803F00403002B00F0B1
:100FE000A6800023FB758B4BDB6903F08053002B3D
:100FF0000DD1884BDB69874A43F08053D361854B21
:10100000DB6903F08053BB60BB680123FB75824B37
:101010001B6803F48073002B18D17F4B1B687E4A3A
:1010200043F480731360FFF74FFB386108E0FFF76C
:101030004BFB02463B69D31A642B01D9032303E11E
:10104000754B1B6803F48073002BF0D07B68DB6862
:10105000012B06D16F4B1B6A6E4A43F001031362EA
:101060002DE07B68DB68002B0CD16A4B1B6A694A58
:1010700023F001031362674B1B6A664A23F00403E3
:1010800013621CE07B68DB68052B0CD1614B1B6A8B
:10109000604A43F0040313625E4B1B6A5D4A43F0EF
:1010A000010313620BE05B4B1B6A5A4A23F00103F6
:1010B0001362584B1B6A574A23F0040313627B6880
:1010C000DB68002B15D0FFF7FFFA38610AE0FFF765
:1010D000FBFA02463B69D31A41F28832934201D9A6
:1010E0000323B1E04B4B1B6A03F00203002BEED04D
:1010F00014E0FFF7E9FA38610AE0FFF7E5FA024683
:101100003B69D31A41F28832934201D903239BE011
:10111000404B1B6A03F00203002BEED1FB7D012B39
:1011200005D13C4BDB693B4A23F08053D3617B689C
:10113000DB69002B00F08780364B5B6803F00C0303
:10114000082B61D07B68DB69022B46D1334B002230
:101150001A60FFF7B9FA386108E0FFF7B5FA0246FE
:101160003B69D31A022B01D903236DE0294B1B687D
:1011700003F00073002BF0D17B681B6AB3F5803F4E
:1011800008D1244B5B6823F400327B689B682149BB
:1011900013434B601F4B5B6823F474127B68196A1E
:1011A0007B685B6A0B431B4913434B601B4B01225B
:1011B0001A60FFF789FA386108E0FFF785FA0246FE
:1011C0003B69D31A022B01D903233DE0114B1B6865
:1011D00003F00073002BF0D035E0104B00221A60B2
:1011E000FFF772FA386108E0FFF76EFA02463B69D2
:1011F000D31A022B01D9032326E0064B1B6803F008
:101200000073002BF0D11EE07B68DB69012B07D156
:10121000012319E0001002400070004060004242CB
:101220000B4B5B68FB60FB6803F480327B681B6AD6
:101230009A4206D1FB6803F470127B685B6A9A429B
:1012400001D0012300E0002318461837BD4680BDB9
:101250000010024080B584B000AF786039607B68D0
:10126000002B01D10123D0E06A4B1B6803F0070378
:101270003A689A4210D9674B1B6823F00702654908
:101280003B6813430B60634B1B6803F007033A682A
:101290009A4201D00123B8E07B681B6803F0020387
:1012A000002B20D07B681B6803F00403002B05D0C3
:1012B000594B5B68584A43F4E06353607B681B6892
:1012C00003F00803002B05D0534B5B68524A43F4EC
:1012D00060535360504B5B6823F0F0027B689B685F
:1012E0004D4913434B607B681B6803F00103002BDF
:1012F00040D07B685B68012B07D1474B1B6803F428
:101300000033002B15D101237FE07B685B68022B43
:1013100007D1414B1B6803F00073002B09D1012357
:1013200073E03D4B1B6803F00203002B01D1012346
:101330006BE0394B5B6823F003027B685B683649DE
:1013400013434B60FFF7C0F9F8600AE0FFF7BCF900
:101350000246FB68D31A41F28832934201D9032333
:1013600053E02D4B5B6803F00C027B685B689B00CD
:101370009A42EBD1274B1B6803F007033A689A4265
:1013800010D2244B1B6823F0070222493B68134309
:101390000B60204B1B6803F007033A689A4201D0A8
:1013A000012332E07B681B6803F00403002B08D0A4
:1013B000194B5B6823F4E0627B68DB6816491343D2
:1013C0004B607B681B6803F00803002B09D0124BAD
:1013D0005B6823F460527B681B69DB000E49134392
:1013E0004B6000F021F802460B4B5B681B0903F0D1
:1013F0000F030A49CB5C22FA03F3094A1360094B35
:101400001B681846FFF76CF8002318461037BD46D6
:1014100080BD00BF0020024000100240705700084D
:10142000000000200400002080B487B000AF00233B
:10143000FB600023BB6000237B6100237B600023F3
:101440003B611E4B5B68FB60FB6803F00C03042BE5
:1014500002D0082B03D027E0194B3B6127E0FB6843
:101460009B0C03F00F03174AD35C7B60FB6803F40B
:101470008033002B10D0114B5B685B0C03F0010331
:10148000114AD35CBB607B680D4A03FB02F2BB6868
:10149000B2FBF3F37B6104E07B680C4A02FB03F3CD
:1014A0007B617B693B6102E0054B3B6100BF3B69AF
:1014B00018461C37BD4680BC704700BF0010024074
:1014C00000127A00885700089857000800093D006C
:1014D00080B400AF024B1B681846BD4680BC704705
:1014E0000000002080B500AFFFF7F2FF0246054B79
:1014F0005B681B0A03F007030349CB5C22FA03F382
:10150000184680BD001002408057000880B500AF2B
:10151000FFF7DEFF0246054B5B68DB0A03F00703BB
:101520000349CB5C22FA03F3184680BD0010024049
:101530008057000880B483B000AF786039607B6862
:101540000F221A60114B5B6803F003027B685A603C
:101550000E4B5B6803F0F0027B689A600B4B5B6894
:1015600003F4E0627B68DA60084B5B68DB0803F435
:10157000E0627B681A61064B1B6803F007023B6858
:101580001A6000BF0C37BD4680BC70470010024097
:101590000020024080B485B000AF78600A4B1B6821
:1015A0000A4AA2FB03235B0A7A6802FB03F3FB608F
:1015B00000BFFB685A1EFA60002BF9D100BF00BFC4
:1015C0001437BD4680BC704700000020D34D621028
:1015D00080B582B000AF78607B68002B01D1012319
:1015E00041E07B6893F83D30DBB2002B06D17B688D
:1015F000002283F83C20786800F039F87B680222EA
:1016000083F83D207B681A687B68043319461046CE
:1016100000F09CF97B68012283F846207B68012258
:1016200083F83E207B68012283F83F207B680122FB
:1016300083F840207B68012283F841207B680122E7
:1016400083F842207B68012283F843207B680122D3
:1016500083F844207B68012283F845207B680122BF
:1016600083F83D20002318460837BD4680BD80B46E
:1016700083B000AF786000BF0C37BD4680BC7047B8
:1016800080B485B000AF78607B6893F83D30DBB202
:10169000012B01D001233AE07B68022283F83D2030
:1016A0007B681B68DA687B681B6842F00102DA60BD
:1016B0007B681B68184A93420ED07B681B68B3F1A5
:1016C000804F09D07B681B68144A934204D07B6822
:1016D0001B68134A934211D17B681B689B6803F017
:1016E0000703FB60FB68062B10D07B681B681A6839
:1016F0007B681B6842F001021A6007E07B681B6888
:101700001A687B681B6842F001021A6000231846C1
:101710001437BD4680BC7047002C014000040040D7
:101720000008004080B584B000AF78607B681B681B
:10173000DB68FB607B681B681B69BB60BB6803F0F0
:101740000203002B20D0FB6803F00203002B1BD008
:101750007B681B686FF002021A617B6801221A77AE
:101760007B681B689B6903F00303002B03D0786838
:1017700000F0D1F805E0786800F0C4F8786800F06F
:10178000D3F87B6800221A77BB6803F00403002BB0
:1017900020D0FB6803F00403002B1BD07B681B6880
:1017A0006FF004021A617B6802221A777B681B685B
:1017B0009B6903F44073002B03D0786800F0ABF80A
:1017C00005E0786800F09EF8786800F0ADF87B6876
:1017D00000221A77BB6803F00803002B20D0FB68B7
:1017E00003F00803002B1BD07B681B686FF0080216
:1017F0001A617B6804221A777B681B68DB6903F037
:101800000303002B03D0786800F085F805E07868C2
:1018100000F078F8786800F087F87B6800221A7783
:10182000BB6803F01003002B20D0FB6803F010030B
:10183000002B1BD07B681B686FF010021A617B685D
:1018400008221A777B681B68DB6903F44073002B5E
:1018500003D0786800F05FF805E0786800F052F88F
:10186000786800F061F87B6800221A77BB6803F0A3
:101870000103002B0CD0FB6803F00103002B07D001
:101880007B681B686FF001021A617868FEF784FDBF
:10189000BB6803F08003002B0CD0FB6803F08003CF
:1018A000002B07D07B681B686FF080021A61786894
:1018B00000F0C3F8BB6803F04003002B0CD0FB68BA
:1018C00003F04003002B07D07B681B686FF04002D9
:1018D0001A61786800F031F8BB6803F02003002B30
:1018E0000CD0FB6803F02003002B07D07B681B683B
:1018F0006FF020021A61786800F096F800BF103788
:10190000BD4680BD80B483B000AF786000BF0C37A7
:10191000BD4680BC704780B483B000AF786000BF24
:101920000C37BD4680BC704780B483B000AF786090
:1019300000BF0C37BD4680BC704780B483B000AF99
:10194000786000BF0C37BD4680BC704780B485B05E
:1019500000AF786039607B681B68FB607B682F4A4A
:1019600093420BD07B68B3F1804F07D07B682C4A41
:10197000934203D07B682B4A934208D1FB6823F043
:101980007003FB603B685B68FA681343FB607B682D
:10199000224A93420BD07B68B3F1804F07D07B681B
:1019A0001F4A934203D07B681E4A934208D1FB68CA
:1019B00023F44073FB603B68DB68FA681343FB6009
:1019C000FB6823F080023B685B691343FB607B6824
:1019D000FA681A603B689A687B68DA623B681A6842
:1019E0007B689A627B680D4A934203D13B681A690F
:1019F0007B681A637B6801225A617B681B6903F06C
:101A00000103002B05D07B681B6923F001027B6872
:101A10001A6100BF1437BD4680BC7047002C0140DE
:101A2000000400400008004080B483B000AF78603C
:101A300000BF0C37BD4680BC704780B483B000AF98
:101A4000786000BF0C37BD4680BC704780B582B05F
:101A500000AF78607B68002B01D1012342E07B68F6
:101A600093F84130DBB2002B06D17B68002283F86B
:101A700040207868FEF7E0FC7B68242283F8412050
:101A80007B681B68DA687B681B6822F40052DA60A6
:101A9000786800F063FD7B681B681A697B681B68C7
:101AA00022F490421A617B681B685A697B681B6844
:101AB00022F02A025A617B681B68DA687B681B681F
:101AC00042F40052DA607B6800225A647B6820226C
:101AD00083F841207B68202283F842207B68002223
:101AE0005A63002318460837BD4680BD80B58AB0CA
:101AF00002AFF860B9603B601346FB8000237B6156
:101B0000FB6893F84130DBB2202B75D1BB68002B0A
:101B100002D0FB88002B01D101236EE0FB6800227C
:101B20005A64FB68212283F84120FEF7CDFD7861DD
:101B3000FB68FA889A84FB68FA88DA84FB689B68F9
:101B4000B3F5805F08D1FB681B69002B04D100232B
:101B5000FB61BB68BB6103E0BB68FB610023BB6149
:101B60002EE03B6800937B6900228021F86800F03A
:101B700001FB0346002B05D0FB68202283F841209F
:101B800003233AE0FB69002B0BD1BB691B881A4683
:101B9000FB681B68C2F308025A60BB690233BB6171
:101BA00007E0FB691A78FB681B685A60FB69013320
:101BB000FB61FB68DB8C9BB2013B9AB2FB68DA8469
:101BC000FB68DB8C9BB2002BCBD13B6800937B691D
:101BD00000224021F86800F0CDFA0346002B05D022
:101BE000FB68202283F84120032306E0FB682022C3
:101BF00083F84120002300E0022318462037BD4629
:101C000080BD000080B5BAB000AF78607B681B680B
:101C10001B68C7F8E4307B681B68DB68C7F8E030F6
:101C20007B681B685B69C7F8DC300023C7F8D830D5
:101C30000023C7F8D430D7F8E43003F00F03C7F817
:101C4000D830D7F8D830002B0FD1D7F8E43003F0D4
:101C50002003002B09D0D7F8E03003F02003002B3D
:101C600003D0786800F0BCFB5BE2D7F8D830002BDB
:101C700000F0DE80D7F8DC3003F00103002B06D142
:101C8000D7F8E03003F49073002B00F0D180D7F840
:101C9000E43003F00103002B0BD0D7F8E03003F45D
:101CA0008073002B05D07B685B6C43F001027B687E
:101CB0005A64D7F8E43003F00403002B0BD0D7F8B4
:101CC000DC3003F00103002B05D07B685B6C43F034
:101CD00002027B685A64D7F8E43003F00203002B59
:101CE0000BD0D7F8DC3003F00103002B05D07B6864
:101CF0005B6C43F004027B685A64D7F8E43003F06D
:101D00000803002B11D0D7F8E03003F02003002B9C
:101D100005D1D7F8DC3003F00103002B05D07B6838
:101D20005B6C43F008027B685A647B685B6C002B39
:101D300000F0F281D7F8E43003F02003002B08D044
:101D4000D7F8E03003F02003002B02D0786800F0D1
:101D500047FB7B681B685B6903F04003002B14BFE3
:101D600001230023DBB2C7F8D4307B685B6C03F03F
:101D70000803002B03D1D7F8D430002B4FD078685C
:101D800000F051FA7B681B685B6903F04003002B8D
:101D900041D07B681B681433C7F89C30D7F89C305F
:101DA00053E8003FC7F89830D7F8983023F0400345
:101DB000C7F8D0307B681B681433D7F8D020C7F839
:101DC000A820C7F8A430D7F8A410D7F8A82041E875
:101DD0000023C7F8A030D7F8A030002BD9D17B68FA
:101DE000DB6B002B13D07B68DB6B7E4A5A637B680E
:101DF000DB6B1846FEF7B0FD0346002B16D07B6860
:101E0000DB6B5B6B7A68D26B104698470EE07868A4
:101E100000F09CF90AE0786800F098F906E078682C
:101E200000F094F97B6800225A6475E100BF73E109
:101E30007B681B6B012B40F04F81D7F8E43003F037
:101E40001003002B00F04881D7F8E03003F01003B6
:101E5000002B00F041810023BB607B681B681B687E
:101E6000BB607B681B685B68BB60BB687B681B688A
:101E70005B6903F04003002B00F0B6807B68DB6BEE
:101E80001B685B68A7F8BE30B7F8BE30002B00F0C7
:101E900045817B689B8DB7F8BE209A4280F03E81D9
:101EA0007B68B7F8BE20DA857B68DB6B9B69202BEB
:101EB00000F088807B681B680C33C7F88830D7F83F
:101EC000883053E8003FC7F88430D7F8843023F4D3
:101ED0008073C7F8B8307B681B680C33D7F8B8201C
:101EE000C7F89420C7F89030D7F89010D7F894200E
:101EF00041E80023C7F88C30D7F88C30002BD9D1BB
:101F00007B681B6814337B677B6F53E8003F3B673C
:101F10003B6F23F00103C7F8B4307B681B681433B0
:101F2000D7F8B420C7F88020FB67F96FD7F8802076
:101F300041E80023BB67BB6F002BE1D17B681B68C6
:101F400014333B663B6E53E8003FFB65FB6D23F0AB
:101F50004003C7F8B0307B681B681433D7F8B02053
:101F6000FA66BB66B96EFA6E41E800237B667B6E4B
:101F7000002BE3D17B68202283F842207B6800227B
:101F80001A637B681B680C33FB64FB6C53E8003FEF
:101F9000BB64BB6C23F01003C7F8AC307B681B68D4
:101FA0000C33D7F8AC20BA657B65796DBA6D41E822
:101FB00000233B653B6D002BE3D17B68DB6B184650
:101FC000FEF78FFC7B6802225A637B689A8D7B68E0
:101FD000DB8D9BB2D31A9BB21946786800F0BFF82C
:101FE0009CE000BFEB2200087B689A8D7B68DB8D4C
:101FF0009BB2D31AA7F8CE307B68DB8D9BB2002B47
:1020000000F08E80B7F8CE30002B00F089807B681E
:102010001B680C33BB63BB6B53E8003F7B637B6B7C
:1020200023F49073C7F8C8307B681B680C33D7F86B
:10203000C8207A643B64396C7A6C41E80023FB6306
:10204000FB6B002BE3D17B681B6814337B627B6ADC
:1020500053E8003F3B623B6A23F00103C7F8C430FA
:102060007B681B681433D7F8C4203A63FB62F96AB3
:102070003A6B41E80023BB62BB6A002BE3D17B686B
:10208000202283F842207B6800221A637B681B6849
:102090000C333B613B6953E8003FFB60FB6823F076
:1020A0001003C7F8C0307B681B680C33D7F8C0201A
:1020B000FA61BB61B969FA6941E800237B617B6918
:1020C000002BE3D17B6802225A63B7F8CE30194661
:1020D000786800F044F823E0D7F8E43003F0800398
:1020E000002B09D0D7F8E03003F08003002B03D099
:1020F000786800F00EF914E0D7F8E43003F04003FC
:10210000002B0ED0D7F8E03003F04003002B08D0AE
:10211000786800F04DF904E000BF02E000BF00E085
:1021200000BFE837BD4680BD80B483B000AF7860A3
:1021300000BF0C37BD4680BC704780B483B000AF91
:10214000786000BF0C37BD4680BC704780B483B058
:1021500000AF786000BF0C37BD4680BC704780B4CC
:1021600083B000AF78600B467B8000BF0C37BD4664
:1021700080BC704780B586B000AFF860B9603B6046
:102180001346FB713BE03B6AB3F1FF3F37D0FEF7EC
:102190009BFA02463B68D31A3A6A9A4202D33B6AD8
:1021A000002B01D103233AE0FB681B68DB6803F0D6
:1021B0000403002B23D0BB68802B20D0BB68402BAE
:1021C0001DD0FB681B681B6803F00803082B16D1A1
:1021D00000237B61FB681B681B687B61FB681B68D5
:1021E0005B687B617B69F86800F01DF8FB6808227A
:1021F0005A64FB68002283F8402001230FE0FB684B
:102200001B681A68BB681340BA689A420CBF012366
:102210000023DBB21A46FB799A42B4D00023184659
:102220001837BD4680BD80B495B000AF78607B683C
:102230001B680C337B637B6B53E8003F3B633B6B5A
:1022400023F49073FB647B681B680C33FA6C3A646C
:10225000FB63F96B3A6C41E80023BB63BB6B002B5B
:10226000E5D17B681B6814333B623B6A53E8003F4F
:10227000FB61FB6923F00103BB647B681B681433BB
:10228000BA6CFA62BB62B96AFA6A41E800237B62FF
:102290007B6A002BE5D17B681B6B012B19D17B6816
:1022A0001B680C33FB60FB6853E8003FBB60BB68F6
:1022B00023F010037B647B681B680C337A6CBA6173
:1022C0007B617969BA6941E800233B613B69002B76
:1022D000E5D17B68202283F842207B6800221A63C4
:1022E00000BF5437BD4680BC704780B584B000AF96
:1022F00078607B685B6AFB60FB680022DA85FB68BC
:102300000022DA84F868FFF721FF00BF1037BD46CE
:1023100080BD80B485B000AF78607B6893F84130B1
:10232000DBB2212B3ED17B689B68B3F5805F14D173
:102330007B681B69002B10D17B681B6AFB60FB6804
:102340001B881A467B681B68C2F308025A607B68C8
:102350001B6A9A1C7B681A6208E07B681B6A591C1E
:102360007A6811621A787B681B685A607B68DB8C1C
:102370009BB2013B9BB27A681946D184002B0FD1E6
:102380007B681B68DA687B681B6822F08002DA6071
:102390007B681B68DA687B681B6842F04002DA6081
:1023A000002300E0022318461437BD4680BC704766
:1023B00080B582B000AF78607B681B68DA687B68A4
:1023C0001B6822F04002DA607B68202283F84120FB
:1023D0007868FFF7A9FE002318460837BD4680BD80
:1023E00080B58CB000AF78607B6893F84230DBB288
:1023F000222B40F0AE807B689B68B3F5805F17D1DD
:102400007B681B69002B13D10023FB627B689B6AEE
:10241000BB627B681B685B689BB2C3F308039AB21C
:10242000BB6A1A807B689B6A9A1C7B689A6226E06A
:102430007B689B6AFB620023BB627B689B68B3F589
:10244000805F07D07B689B68002B0AD17B681B6983
:10245000002B06D17B681B685B68DAB2FB6A1A70D6
:1024600008E07B681B685B68DBB203F07F03DAB2CD
:10247000FB6A1A707B689B6A5A1C7B689A627B684D
:10248000DB8D9BB2013B9BB27A681946D185002B4C
:102490005DD17B681B68DA687B681B6822F02002CC
:1024A000DA607B681B68DA687B681B6822F48072DC
:1024B000DA607B681B685A697B681B6822F001023E
:1024C0005A617B68202283F842207B6800225A638D
:1024D0007B681B6B012B35D17B6800221A637B68FC
:1024E0001B680C337B617B6953E8003F3B613B69B0
:1024F00023F010037B627B681B680C337A6A3A62B4
:10250000FB61F9693A6A41E80023BB61BB69002BB2
:10251000E5D17B681B681B6803F01003102B0AD100
:102520000023FB607B681B681B68FB607B681B6883
:102530005B68FB60FB687B689B8D19467868FFF7DA
:102540000EFE02E07868FFF7F8FD002302E00023AA
:1025500000E0022318463037BD4680BD80B584B008
:1025600000AF78607B681B681B6923F440517B686F
:10257000DA687B681B680A431A617B689A687B6823
:102580001B691A437B685B691343BB607B681B68EC
:10259000DB6823F4B05323F00C037A681268B9683F
:1025A0000B43D3607B681B685B6923F440717B68D5
:1025B0009A697B681B680A435A617B681B682C4ACE
:1025C000934203D1FEF7A2FFF86002E0FEF78AFF14
:1025D000F860FA6813469B0013449A001A447B681B
:1025E0005B689B00B2FBF3F3224AA2FB03235B0967
:1025F0001901FA6813469B0013449A001A447B6839
:102600005B689B00B2FBF3F21A4BA3FB02035B096E
:10261000642000FB03F3D31A1B013233154AA2FBDB
:1026200003235B0903F0F0031944FA6813469B0087
:1026300013449A001A447B685B689B00B2FBF3F278
:102640000C4BA3FB02035B09642000FB03F3D31ACA
:102650001B013233074AA2FB03235B0903F00F027D
:102660007B681B680A449A6000BF1037BD4680BD76
:10267000003801401F85EB5180B483B000AF0346A2
:102680003960FB7197F90730002B0ADB3B68DAB23F
:102690000C4997F907301201D2B20B4483F800239A
:1026A0000AE03B68DAB20849FB7903F00F03043B08
:1026B0001201D2B20B441A7600BF0C37BD4680BC63
:1026C000704700BF00E100E000ED00E080B500AF22
:1026D000054B1B6801F0B8FE0346012B01D002F048
:1026E0005BFC00BF80BD00BF10E000E080B500AF24
:1026F00000216FF00400FFF7BFFF00BF80BD0000A6
:1027000080B483B000AFEFF305833B603B68002BE0
:1027100003D06FF005037B600CE0094B1B68002BB6
:1027200005D1074B01221A6000237B6002E04FF0C5
:10273000FF337B607B6818460C37BD4680BC704712
:102740002001002080B582B000AFEFF305833B602D
:102750003B68002B03D06FF005037B6010E00B4B50
:102760001B68012B09D1FFF7C1FF084B02221A6039
:1027700001F00AFA00237B6002E04FF0FF337B6038
:102780007B6818460837BD4680BD00BF2001002089
:1027900080B58EB004AFF860B9607A6000233B6109
:1027A000EFF305837B617B69002B7ED1FB68002BF7
:1027B0007BD080233B621823FB6100237B624FF0B8
:1027C000FF33BB617B68002B45D07B681B68002B07
:1027D00002D07B681B687B627B689B69002B02D000
:1027E0007B689B69FB61FB69002B08D0FB69382B78
:1027F00005D87B685B6803F00103002B01D0002340
:1028000054E07B685B69002B03D07B685B699B08A5
:102810003B627B689B68002B0ED07B68DB68A72B34
:102820000AD97B681B69002B06D07B685B69002B8B
:1028300002D00123BB6110E07B689B68002B0CD1A8
:102840007B68DB68002B08D17B681B69002B04D1F7
:102850000023BB6101E00023BB61BB69012B10D1E8
:102860007B681B697A68926802920193FB69009306
:10287000BB683A6A796AF86800F092FF03463B61E8
:1028800013E0BB69002B10D13B6A9AB207F1100329
:102890000193FB690093BB68796AF86800F0E0FF78
:1028A0000346012B01D000233B613B6918462837C2
:1028B000BD4680BD80B584B000AF7860EFF305837E
:1028C000BB60BB68002B03D06FF00503FB6007E023
:1028D0000023FB607B68002B02D0786801F01EF9B2
:1028E000FB6818461037BD4680BD80B58AB002AF80
:1028F000F860B9607A600023FB61EFF305833B6108
:102900003B69002B75D1FB68002B72D0BA68FB685D
:102910009A426ED84FF0FF33BB617B68002B15D015
:102920007B689B68002B06D07B68DB684F2B02D945
:102930000123BB610CE07B689B68002B08D17B689E
:10294000DB68002B04D10023BB6101E00023BB61E5
:10295000BB69B3F1FF3F4CD0FB68012B28D1BB69A9
:10296000012B0AD17B689B68032200920022002180
:10297000012000F08FF9F86105E003220021012019
:1029800000F005FAF861FB69002B22D0BB68002B30
:102990001FD0002300220021F86900F0C5FA034689
:1029A000012B16D0F86900F041FD0023FB6110E017
:1029B000BB69012B08D17B689B681A46B968F86827
:1029C00000F043FAF86104E0B968F86800F076FABC
:1029D000F861FB69002B0CD07B68002B03D07B686F
:1029E0001B687B6101E000237B617969F86900F075
:1029F00051FEFB6918462037BD4680BD80B485B0C6
:102A000000AFF860B9607A60FB68064A1A60BB687C
:102A1000054A1A607B6880221A6000BF1437BD46E1
:102A200080BC704724010020CC01002080B485B018
:102A300000AFF860B9607A60FB68074A1A60BB684B
:102A4000064A1A607B684FF480721A6000BF143720
:102A5000BD4680BC704700BFCC030020740400203A
:102A600080B483B000AF78607B6803F108027B68B4
:102A70005A607B684FF0FF329A607B6803F108026E
:102A80007B68DA607B6803F108027B681A617B6807
:102A900000221A6000BF0C37BD4680BC704780B46E
:102AA00083B000AF78607B6800221A6100BF0C37EA
:102AB000BD4680BC704780B485B000AF7860396097
:102AC0007B685B68FB603B68FA685A60FB689A68E1
:102AD0003B689A60FB689B683A685A60FB683A6892
:102AE0009A603B687A681A617B681B685A1C7B682D
:102AF0001A6000BF1437BD4680BC704780B485B0F3
:102B000000AF786039603B681B68BB60BB68B3F19D
:102B1000FF3F03D17B681B69FB600CE07B680833D7
:102B2000FB6002E0FB685B68FB60FB685B681B683E
:102B3000BA689A42F6D2FB685A683B685A603B68AA
:102B40005B683A689A603B68FA689A60FB683A6822
:102B50005A603B687A681A617B681B685A1C7B68FC
:102B60001A6000BF1437BD4680BC704780B485B082
:102B700000AF78607B681B69FB607B685B687A6884
:102B800092689A607B689B687A6852685A60FB68B2
:102B90005B687A689A4203D17B689A68FB685A60DE
:102BA0007B6800221A61FB681B685A1EFB681A606A
:102BB000FB681B6818461437BD4680BC7047000090
:102BC00080B584B000AF786039607B68FB60FB68DB
:102BD000002B0BD14FF0500383F31188BFF36F8F9D
:102BE000BFF34F8FBB6000BF00BFFDE702F056F997
:102BF000FB681A68FB68DB6BF968096C01FB03F37F
:102C00001A44FB689A60FB6800229A63FB681A68A2
:102C1000FB685A60FB681A68FB68DB6B013BF9686C
:102C2000096C01FB03F31A44FB68DA60FB68FF22BE
:102C300083F84420FB68FF2283F845203B68002B83
:102C400014D1FB681B69002B1AD0FB68103318469F
:102C500001F034FA0346002B12D00D4B4FF0805296
:102C60001A60BFF34F8FBFF36F8F09E0FB6810331B
:102C70001846FFF7F5FEFB6824331846FFF7F0FE11
:102C800002F03CF9012318461037BD4680BD00BF55
:102C900004ED00E080B58EB002AFF860B9607A60F4
:102CA0003B60FB68002B0BD14FF0500383F311887E
:102CB000BFF36F8FBFF34F8FBB6200BF00BFFDE755
:102CC0003B68002B0BD14FF0500383F31188BFF307
:102CD0006F8FBFF34F8F7B6200BF00BFFDE77B6844
:102CE000002B02D0BB68002B01D0012300E00023A1
:102CF000002B0BD14FF0500383F31188BFF36F8F7C
:102D0000BFF34F8F3B6200BF00BFFDE77B68002B26
:102D100002D1BB68002B01D1012300E00023002B6E
:102D20000BD14FF0500383F31188BFF36F8FBFF3C4
:102D30004F8FFB6100BF00BFFDE750237B617B69C4
:102D4000502B0BD04FF0500383F31188BFF36F8FDC
:102D5000BFF34F8FBB6100BF00BFFDE77B693B68DE
:102D6000FB62FB6A002B0DD0FB6A012283F8462030
:102D700097F83820FB6A009313467A68B968F868B8
:102D800000F040F8FB6A18463037BD4680BD80B57C
:102D90008AB002AFF860B9601346FB71FB68002B84
:102DA0000BD14FF0500383F31188BFF36F8FBFF344
:102DB0004F8F3B6100BF00BFFDE7FB68BA6802FBB5
:102DC00003F3FB61FB695033184602F069F9B861FF
:102DD000BB69002B11D0BB697B617B6950337B6180
:102DE000BB69002283F84620FA79BB690093134639
:102DF0007A69B968F86800F005F8BB6918462037A9
:102E0000BD4680BD80B584B000AFF860B9607A601F
:102E1000FB70BB68002B03D1BB69BA691A6002E082
:102E2000BB697A681A60BB69FA68DA63BB69BA6819
:102E30001A640121B869FFF7C3FEBB69FA7883F809
:102E40004C2000BF1037BD4680BD80B58AB002AFB0
:102E5000F860B9607A60FB68002B0BD14FF050032B
:102E600083F31188BFF36F8FBFF34F8FBB6100BF38
:102E700000BFFDE7BA68FB689A420BD94FF05003D8
:102E800083F31188BFF36F8FBFF34F8F7B6100BF58
:102E900000BFFDE7022300937B6800220021F86851
:102EA000FFF7F8FEF861FB69002B02D0FB69BA68F6
:102EB0009A63FB6918462037BD4680BD80B586B051
:102EC00000AF786039607B68002B0BD14FF0500366
:102ED00083F31188BFF36F8FBFF34F8F3B6100BF48
:102EE00000BFFDE73A687B689A420BD94FF0500368
:102EF00083F31188BFF36F8FBFF34F8FFB6000BF69
:102F000000BFFDE7022200217868FFF740FF7861EB
:102F10007B69002B02D07B693A689A637B6918460B
:102F20001837BD4680BD000080B58EB000AFF86098
:102F3000B9607A603B6000237B63FB683B633B6B5B
:102F4000002B0BD14FF0500383F31188BFF36F8F29
:102F5000BFF34F8FBB6200BF00BFFDE7BB68002B14
:102F600003D13B6B1B6C002B01D1012300E000233C
:102F7000002B0BD14FF0500383F31188BFF36F8FF9
:102F8000BFF34F8F7B6200BF00BFFDE73B68022BA2
:102F900003D13B6BDB6B012B01D1012300E000234C
:102FA000002B0BD14FF0500383F31188BFF36F8FC9
:102FB000BFF34F8F3B6200BF00BFFDE701F044FA53
:102FC0000346002B02D17B68002B01D1012300E0D6
:102FD0000023002B0BD14FF0500383F31188BFF374
:102FE0006F8FBFF34F8FFB6100BF00BFFDE701F0A4
:102FF00055FF3B6B9A6B3B6BDB6B9A4202D33B6892
:10300000022B29D13A68B968386B00F033FAF862BC
:103010003B6B5B6A002B10D03B6B2433184601F0EE
:103020004DF80346002B13D03F4B4FF080521A60EF
:10303000BFF34F8FBFF36F8F0AE0FB6A002B07D0FF
:10304000394B4FF080521A60BFF34F8FBFF36F8F31
:1030500001F054FF012363E07B68002B03D101F0F2
:103060004DFF00235CE07B6B002B06D107F11403BE
:10307000184601F087F801237B6301F03FFF00F061
:10308000F3FD01F00BFF3B6B93F844305BB2B3F1FF
:10309000FF3F03D13B6B002283F844203B6B93F846
:1030A00045305BB2B3F1FF3F03D13B6B002283F8A5
:1030B000452001F023FF3A1D07F11403114618467D
:1030C00001F076F80346002B24D1386B00F0CAFAE1
:1030D0000346002B18D03B6B10337A681146184614
:1030E00000F09AFF386B00F055FA00F0CBFD034674
:1030F000002B7FF47CAF0C4B4FF080521A60BFF373
:103100004F8FBFF36F8F72E7386B00F043FA00F018
:10311000B9FD6CE7386B00F03DFA00F0B3FD002319
:1031200018463837BD4680BD04ED00E080B590B04C
:1031300000AFF860B9607A603B60FB68BB63BB6B53
:10314000002B0BD14FF0500383F31188BFF36F8F27
:10315000BFF34F8FBB6200BF00BFFDE7BB68002B12
:1031600003D1BB6B1B6C002B01D1012300E00023BA
:10317000002B0BD14FF0500383F31188BFF36F8FF7
:10318000BFF34F8F7B6200BF00BFFDE73B68022BA0
:1031900003D1BB6BDB6B012B01D1012300E00023CA
:1031A000002B0BD14FF0500383F31188BFF36F8FC7
:1031B000BFF34F8F3B6200BF00BFFDE701F030FF60
:1031C000EFF311824FF0500383F31188BFF36F8F39
:1031D000BFF34F8FFA61BB61FB697B63BB6B9A6B7B
:1031E000BB6BDB6B9A4202D33B68022B2FD1BB6BCC
:1031F00093F8453087F83330BB6B9B6BFB623A68C2
:10320000B968B86B00F036F997F93330B3F1FF3F86
:1032100012D1BB6B5B6A002B16D0BB6B24331846F4
:1032200000F04CFF0346002B0ED07B68002B0BD028
:103230007B6801221A6007E097F833300133DBB274
:103240005AB2BB6B83F845200123FB6301E00023E6
:10325000FB637B6B7B617B6983F3118800BFFB6B36
:1032600018464037BD4680BD80B58CB000AFF860D1
:10327000B9607A600023FB62FB68BB62BB6A002B0B
:103280000BD14FF0500383F31188BFF36F8FBFF35F
:103290004F8F3B6200BF00BFFDE7BB68002B03D12F
:1032A000BB6A1B6C002B01D1012300E00023002B23
:1032B0000BD14FF0500383F31188BFF36F8FBFF32F
:1032C0004F8FFB6100BF00BFFDE701F0BDF8034673
:1032D000002B02D17B68002B01D1012300E00023E9
:1032E000002B0BD14FF0500383F31188BFF36F8F86
:1032F000BFF34F8FBB6100BF00BFFDE701F0CEFD04
:10330000BB6A9B6B7B627B6A002B1FD0B968B86A73
:1033100000F01AF97B6A5A1EBB6A9A63BB6A1B6982
:10332000002B0FD0BB6A1033184600F0C7FE0346CF
:10333000002B07D03C4B4FF080521A60BFF34F8FE9
:10334000BFF36F8F01F0DAFD012369E07B68002B8A
:1033500003D101F0D3FD002362E0FB6A002B06D10C
:1033600007F11003184600F00DFF0123FB6201F086
:10337000C5FD00F079FC01F091FDBB6A93F8443083
:103380005BB2B3F1FF3F03D1BB6A002283F8442054
:10339000BB6A93F845305BB2B3F1FF3F03D1BB6A20
:1033A000002283F8452001F0A9FD3A1D07F1100322
:1033B0001146184600F0FCFE0346002B23D1B86AE4
:1033C00000F03AF90346002B17D0BB6A24337A6821
:1033D0001146184600F020FEB86A00F0DBF800F055
:1033E00051FC0346002B89D10F4B4FF080521A60DD
:1033F000BFF34F8FBFF36F8F80E7B86A00F0CAF852
:1034000000F040FC7AE7B86A00F0C4F800F03AFC3B
:10341000B86A00F011F90346002B3FF46FAF0023A8
:1034200018463037BD4680BD04ED00E080B584B05D
:1034300000AF78607B68FB60FB68002B0BD14FF01E
:10344000500383F31188BFF36F8FBFF34F8FBB60BF
:1034500000BF00BFFDE7F86800F044F9FB6893F88F
:103460004630002B02D1F86801F0E8FE00BF1037AB
:10347000BD4680BD80B586B000AFF860B9607A60A7
:1034800000237B61FB689B6B3B61FB681B6C002B23
:103490000DD1FB681B68002B4DD1FB689B6818465B
:1034A00000F0F0FF7861FB6800229A6043E07B68DF
:1034B000002B19D1FB685868FB681B6C1A46B96869
:1034C00002F05EF8FB685A68FB681B6C1A44FB68E4
:1034D0005A60FB685A68FB689B689A422BD3FB686A
:1034E0001A68FB685A6026E0FB68D868FB681B6CAA
:1034F0001A46B96802F044F8FB68DA68FB681B6C8E
:103500005B421A44FB68DA60FB68DA68FB681B6898
:103510009A4207D2FB689A68FB681B6C5B421A44AC
:10352000FB68DA607B68022B05D13B69002B02D077
:103530003B69013B3B613B695A1CFB689A637B69B1
:1035400018461837BD4680BD80B582B000AF7860A0
:1035500039607B681B6C002B18D07B68DA687B684D
:103560001B6C1A447B68DA607B68DA687B689B684E
:103570009A4203D37B681A687B68DA607B68D968F3
:103580007B681B6C1A46386801F0FAFF00BF0837E9
:10359000BD4680BD80B584B000AF786001F07EFC90
:1035A0007B6893F84530FB7311E07B685B6A002B06
:1035B00012D07B682433184600F080FD0346002BB0
:1035C00001D000F059FEFB7B013BDBB2FB7397F9A6
:1035D0000F30002BE9DC00E000BF7B68FF2283F89E
:1035E000452001F08BFC01F059FC7B6893F84430D6
:1035F000BB7311E07B681B69002B12D07B68103312
:10360000184600F05BFD0346002B01D000F034FEAD
:10361000BB7B013BDBB2BB7397F90E30002BE9DCBF
:1036200000E000BF7B68FF2283F8442001F066FCC5
:1036300000BF1037BD4680BD80B584B000AF786054
:1036400001F02CFC7B689B6B002B02D10123FB60FB
:1036500001E00023FB6001F051FCFB6818461037C5
:10366000BD4680BD80B584B000AF786001F016FC27
:103670007B689A6B7B68DB6B9A4202D10123FB600B
:1036800001E00023FB6001F039FCFB6818461037AD
:10369000BD4680BD80B485B000AF7860396000233E
:1036A000FB6014E00E4AFB6852F83330002B0BD15C
:1036B0000B49FB683A6841F83320094AFB68DB0094
:1036C00013447A685A6006E0FB680133FB60FB68CC
:1036D000072BE7D900BF00BF1437BD4680BC704739
:1036E0007408002080B485B000AF78600023FB60D0
:1036F00016E0104AFB68DB0013445B687A689A4264
:103700000BD10C4AFB68002142F83310094AFB68D0
:10371000DB00134400225A6006E0FB680133FB60C3
:10372000FB68072BE5D900BF00BF1437BD4680BC3E
:10373000704700BF7408002080B586B000AFF86005
:10374000B9607A60FB687B6101F0A8FB7B6993F844
:1037500044305BB2B3F1FF3F03D17B69002283F8B1
:1037600044207B6993F845305BB2B3F1FF3F03D14E
:103770007B69002283F8452001F0C0FB7B699B6BCD
:10378000002B06D17B6924337A68B968184600F0AB
:1037900069FC7869FFF7FEFE00BF1837BD4680BDA3
:1037A00080B58EB004AFF860B9607A603B607B6B27
:1037B000002B0BD14FF0500383F31188BFF36F8FB1
:1037C000BFF34F8F3B6200BF00BFFDE7BB6B002B19
:1037D0000BD14FF0500383F31188BFF36F8FBFF30A
:1037E0004F8FFB6100BF00BFFDE7A8233B613B6932
:1037F000A82B0BD04FF0500383F31188BFF36F8FCA
:10380000BFF34F8FBB6100BF00BFFDE73B69BB6BE0
:10381000002B1ED07B6B002B1BD0BB6B7B627B6AAB
:103820007A6B1A637B6A022283F8A5200023039334
:103830007B6A029307F1140301933B6B00933B688F
:103840007A68B968F86800F051F8786A00F0F6F81C
:1038500001E000237B617B6918462837BD4680BDA7
:1038600080B58CB004AFF860B9603B601346FB8054
:10387000FB889B00184601F013FC78617B69002BE4
:103880000ED0A82001F00CFCF861FB69002B03D0DE
:10389000FB697A691A6305E0786901F0CFFC01E001
:1038A0000023FB61FB69002B17D0FB69002283F822
:1038B000A520FA8800230393FB690293FB6A019316
:1038C000BB6A00933B68B968F86800F00FF8F869C4
:1038D00000F0B4F80123BB6102E04FF0FF33BB619D
:1038E000BB6918462037BD4680BD000080B588B052
:1038F00000AFF860B9607A603B603B6B186B7B6827
:103900009B001A46A52101F0B7FD3B6B1A6B7B6843
:1039100003F18043013B9B001344BB61BB6923F06F
:103920000703BB61BB6903F00703002B0BD04FF00B
:10393000500383F31188BFF36F8FBFF34F8F7B6109
:1039400000BF00BFFDE7BB68002B1FD00023FB6159
:1039500012E0BA68FB69134419783A6BFB691344A7
:1039600034330A461A70BA68FB6913441B78002B7B
:1039700006D0FB690133FB61FB690F2BE9D900E03D
:1039800000BF3B6B002283F8432003E03B6B002227
:1039900083F83420BB6A372B01D93723BB623B6BDA
:1039A000BA6ADA623B6BBA6ADA643B6B00221A6568
:1039B0003B6B04331846FFF772F83B6B183318461D
:1039C000FFF76DF83B6B3A6B1A61BB6AC3F13802C3
:1039D0003B6B9A613B6B3A6B5A623B6B0022C3F8BC
:1039E000A0203B6B002283F8A4203B6B54334C2275
:1039F0000021184601F040FD3B6B0D4A9A653B6B78
:103A00000C4ADA653B6B0C4A1A663A68F968B86981
:103A100001F054F902463B6B1A60FB6A002B02D09E
:103A2000FB6A3A6B1A6000BF2037BD4680BD00BFFD
:103A3000081B0020701B0020D81B002080B582B01E
:103A400000AF786001F02AFA2D4B1B6801332C4A35
:103A500013602C4B1B68002B09D12A4A7B6813602A
:103A6000274B1B68012B10D100F02AFC0DE0264BE0
:103A70001B68002B09D1234B1B68DA6A7B68DB6A61
:103A80009A4202D81F4A7B681360204B1B6801339F
:103A90001E4A13601D4B1A687B685A647B68DA6A99
:103AA0001B4B1B689A4203D97B68DB6A184A136078
:103AB0007B68DA6A13469B0013449B00154A1A443C
:103AC0007B68043319461046FEF7F5FF01F016FA3D
:103AD0000D4B1B68002B0ED00A4B1B68DA6A7B6803
:103AE000DB6A9A4207D20C4B4FF080521A60BFF348
:103AF0004F8FBFF36F8F00BF0837BD4680BD00BF3B
:103B0000880D0020B4080020940D0020A40D002092
:103B1000900D0020B808002004ED00E080B584B0CE
:103B200000AF78600023FB607B68002B18D0144B3B
:103B30001B68002B0BD04FF0500383F31188BFF3A9
:103B40006F8FBFF34F8FBB6000BF00BFFDE700F07A
:103B50008BF80021786800F005FD00F093F8F8601C
:103B6000FB68002B07D1074B4FF080521A60BFF360
:103B70004F8FBFF36F8F00BF1037BD4680BD00BFB2
:103B8000B00D002004ED00E080B58AB004AF002342
:103B9000BB6000237B603A46391D07F108031846D5
:103BA000FEF72CFF39687B68BA6802920193002304
:103BB000009300230A4624492448FFF7F1FD0346F9
:103BC000234A1360224B1B68002B02D001237B6128
:103BD00001E000237B617B69012B02D100F016FD1F
:103BE00078617B69012B1BD14FF0500383F311885F
:103BF000BFF36F8FBFF34F8F3B6100BF154B1B6847
:103C00005433154A1360154B4FF0FF321A60144BB2
:103C100001221A60134B00221A6001F0CDF80FE068
:103C20007B69B3F1FF3F0BD14FF0500383F3118851
:103C3000BFF36F8FBFF34F8FFB6000BF00BFFDE787
:103C400000BF1837BD4680BDDC5600089142000811
:103C5000AC0D0020B408002010000020A80D0020AA
:103C6000940D00208C0D002080B400AF044B1B6825
:103C70000133034A136000BFBD4680BC704700BFDC
:103C8000B00D002080B584B000AF0023FB6000239E
:103C9000BB60424B1B68002B0BD14FF0500383F3EA
:103CA0001188BFF36F8FBFF34F8F3B6000BF00BF22
:103CB000FDE701F0F3F8394B1B68013B374A13600D
:103CC000364B1B68002B62D1354B1B68002B5ED036
:103CD0002FE0344BDB68DB68FB60FB681833184669
:103CE000FEF744FFFB6804331846FEF73FFFFB680E
:103CF000DA6A2D4B1B689A4203D9FB68DB6A2A4AB1
:103D00001360FB68DA6A13469B0013449B00274A42
:103D10001A44FB68043319461046FEF7CCFEFB68D4
:103D2000DA6A234B1B68DB6A9A4202D3214B0122D9
:103D30001A601C4B1B68002BCBD1FB68002B01D0F9
:103D400000F062FB1C4B1B687B607B68002B10D073
:103D500000F044F80346002B02D0164B01221A60F3
:103D60007B68013B7B607B68002BF1D1124B00220A
:103D70001A60104B1B68002B09D00123BB600F4B4E
:103D80004FF080521A60BFF34F8FBFF36F8F01F077
:103D9000B5F8BB6818461037BD4680BDB00D002091
:103DA000880D0020480D0020900D0020B80800204C
:103DB000B40800209C0D0020980D002004ED00E0C8
:103DC00080B483B000AF044B1B687B607B681846EF
:103DD0000C37BD4680BC70478C0D002080B586B086
:103DE00000AF00237B614F4B1B68002B40F090809D
:103DF0004D4B1B6801333B614B4A3B6913603B6988
:103E0000002B21D1494B1B681B68002B0BD04FF0B6
:103E1000500383F31188BFF36F8FBFF34F8F3B6065
:103E200000BF00BFFDE7414B1B68FB60404B1B68B8
:103E30003E4A13603E4AFB6813603E4B1B680133E9
:103E40003C4A136000F0E0FA3B4B1B683A699A4227
:103E500049D3364B1B681B68002B04D1364B4FF0FF
:103E6000FF321A603FE0314B1B68DB68DB68BB60E8
:103E7000BB685B687B603A697B689A4203D22E4AD2
:103E80007B6813602FE0BB6804331846FEF76EFEB4
:103E9000BB689B6A002B04D0BB6818331846FEF73A
:103EA00065FEBB68DA6A254B1B689A4203D9BB687A
:103EB000DB6A224A1360BB68DA6A13469B0013442C
:103EC0009B001F4A1A44BB68043319461046FEF78C
:103ED000F2FDBB68DA6A1B4B1B68DB6A9A42B8D3F7
:103EE00001237B61B5E7174B1B68DA6A1449134657
:103EF0009B0013449B000B441B68012B01D9012339
:103F00007B61114B1B68002B07D001237B6104E010
:103F10000E4B1B6801330D4A13607B691846183736
:103F2000BD4680BDB00D00208C0D0020400D00204E
:103F3000440D0020A00D0020A80D0020900D0020B1
:103F4000B8080020B40800209C0D0020980D002027
:103F500080B485B000AF2A4B1B68002B03D0294BDF
:103F600001221A6047E0274B00221A60264B1B688B
:103F7000FB6011E0FB68002B0BD14FF0500383F383
:103F80001188BFF36F8FBFF34F8F7B6000BF00BFFF
:103F9000FDE7FB68013BFB601C49FA6813469B0088
:103FA00013449B000B441B68002BE3D0FA681346B4
:103FB0009B0013449B00154A1344BB60BB685B68BD
:103FC0005A68BB685A60BB685A68BB6808339A4233
:103FD00004D1BB685B685A68BB685A60BB685B68A1
:103FE000DB680B4A1360084AFB681360084B1B68C8
:103FF0005433084A136000BF1437BD4680BC704775
:10400000B00D00209C0D0020900D0020B80800206D
:10401000B40800201000002080B584B000AF7860A4
:1040200039607B68002B0BD14FF0500383F311886C
:10403000BFF36F8FBFF34F8FFB6000BF00BFFDE783
:10404000074B1B68183319467868FEF757FD0121A6
:10405000386800F087FA00BF1037BD4680BD00BF4A
:10406000B408002080B586B000AFF860B9607A600F
:10407000FB68002B0BD14FF0500383F31188BFF383
:104080006F8FBFF34F8F7B6100BF00BFFDE70A4B0F
:104090001B6818331946F868FEF70DFD7B68002B86
:1040A00002D04FF0FF33BB607968B86800F05AFA6D
:1040B00000BF1837BD4680BDB408002080B586B06B
:1040C00000AF78607B68DB68DB683B613B69002B95
:1040D0000BD14FF0500383F31188BFF36F8FBFF301
:1040E0004F8FFB6000BF00BFFDE73B6918331846E8
:1040F000FEF73CFD1D4B1B68002B1DD13B690433B3
:104100001846FEF733FD3B69DA6A194B1B689A4281
:1041100003D93B69DB6A164A13603B69DA6A1346C6
:104120009B0013449B00134A1A443B69043319460D
:104130001046FEF7C0FC05E03B69183319460E48EF
:10414000FEF7B9FC3B69DA6A0C4B1B68DB6A9A42E2
:1041500005D901237B610A4B01221A6001E000238B
:104160007B617B6918461837BD4680BDB00D0020C5
:10417000900D0020B8080020480D0020B408002051
:104180009C0D002080B483B000AF7860064B1A68A5
:104190007B681A60054B1A687B685A6000BF0C3751
:1041A000BD4680BC704700BFA00D00208C0D0020D4
:1041B00080B588B000AF786039607B68002B0BD188
:1041C0004FF0500383F31188BFF36F8FBFF34F8F0E
:1041D0003B6100BF00BFFDE73B68002B0BD14FF0F8
:1041E000500383F31188BFF36F8FBFF34F8FFB60D2
:1041F00000BF00BFFDE700F051FE1D4B1B68BB6117
:104200007B685B68BA69D31A7B613B681B68B3F152
:10421000FF3F02D10023FB6123E07B681A68154B46
:104220001B689A4207D07B685B68BA699A4202D3DE
:104230000123FB6115E03B681B687A699A420BD247
:104240003B681A687B69D21A3B681A607868FFF786
:1042500099FF0023FB6104E03B6800221A60012300
:10426000FB6100F04BFEFB6918462037BD4680BD60
:104270008C0D0020A00D002080B400AF034B012264
:104280001A6000BFBD4680BC704700BF9C0D002077
:1042900080B582B000AF786000F052F8064B1B6822
:1042A000012BF9D9054B4FF080521A60BFF34F8FA5
:1042B000BFF36F8FF0E700BFB808002004ED00E007
:1042C00080B582B000AF00237B600CE07A681346B3
:1042D0009B0013449B00124A13441846FEF7C0FB90
:1042E0007B6801337B607B68372BEFD90D48FEF785
:1042F000B7FB0D48FEF7B4FB0C48FEF7B1FB0C48CA
:10430000FEF7AEFB0B48FEF7ABFB0B4B054A1A6002
:104310000A4B054A1A6000BF0837BD4680BD00BF82
:10432000B8080020180D00202C0D0020480D00209A
:104330005C0D0020740D0020400D0020440D002075
:1043400080B582B000AF19E000F0A8FD104BDB682B
:10435000DB687B607B6804331846FEF707FC0D4B77
:104360001B68013B0B4A13600B4B1B68013B0A4A5D
:10437000136000F0C3FD786800F010F8064B1B686E
:10438000002BE1D100BF00BF0837BD4680BD00BF94
:104390005C0D0020880D0020700D002080B584B0D9
:1043A00000AF78607B685433184601F06DF87B6885
:1043B00093F8A530002B08D17B681B6B184600F0E2
:1043C0003DFF786800F03AFF19E07B6893F8A5306C
:1043D000012B03D1786800F031FF10E07B6893F87F
:1043E000A530022B0BD04FF0500383F31188BFF39D
:1043F0006F8FBFF34F8FFB6000BF00BFFDE700BFB3
:104400001037BD4680BD000080B483B000AF0C4BB8
:104410001B681B68002B04D10A4B4FF0FF321A6057
:1044200008E0074B1B68DB68DB687B607B685B68C8
:10443000044A136000BF0C37BD4680BC704700BF04
:10444000400D0020A80D002080B483B000AF0B4BBE
:104450001B68002B02D101237B6008E0084B1B681E
:10446000002B02D102237B6001E000237B607B688C
:1044700018460C37BD4680BC704700BF940D002025
:10448000B00D002080B586B000AF78607B683B61DE
:1044900000237B617B68002B58D02F4B1B683A6947
:1044A0009A420BD04FF0500383F31188BFF36F8F04
:1044B000BFF34F8FFB6000BF00BFFDE73B691B6D83
:1044C000002B0BD14FF0500383F31188BFF36F8F94
:1044D000BFF34F8FBB6000BF00BFFDE73B691B6DA3
:1044E0005A1E3B691A653B69DA6A3B69DB6C9A4282
:1044F0002CD03B691B6D002B28D13B690433184637
:10450000FEF734FB3B69DA6C3B69DA623B69DB6AD4
:10451000C3F138023B699A613B69DA6A0F4B1B6849
:104520009A4203D93B69DB6A0C4A13603B69DA6A39
:1045300013469B0013449B00094A1A443B69043309
:1045400019461046FEF7B7FA01237B617B691846CE
:104550001837BD4680BD00BFB4080020900D002074
:10456000B808002080B584B000AF78603960214B76
:104570001B68FB60204B1B6804331846FEF7F6FAF5
:104580007B68B3F1FF3F0AD13B68002B07D01A4B81
:104590001B68043319461948FEF78DFA26E0FA68BD
:1045A0007B681344BB60144B1B68BA685A60BA68D6
:1045B000FB689A4209D2124B1A680F4B1B680433EE
:1045C00019461046FEF79AFA10E00E4B1A680A4B8D
:1045D0001B68043319461046FEF790FA0A4B1B6815
:1045E000BA689A4202D2084ABB68136000BF10370B
:1045F000BD4680BD8C0D0020B4080020740D002045
:10460000440D0020400D0020A80D002080B58AB088
:1046100004AF00237B6100F011FB1D4B1B68002BD6
:1046200021D00023FB600023BB603A1D07F1080185
:1046300007F10C031846FEF7F9F97968BB68FA68C8
:10464000029201930223009300230A461149124863
:10465000FFF7A6F80346114A1360104B1B68002BA6
:1046600001D001237B617B69002B0BD14FF05003FC
:1046700083F31188BFF36F8FBFF34F8F3B6100BF90
:1046800000BFFDE77B6918461837BD4680BD00BFF7
:10469000E40D0020E4560008D9470008E80D00208A
:1046A00080B58AB000AFF860B9607A603B600023E3
:1046B0007B62FB68002B0BD14FF0500383F3118812
:1046C000BFF36F8FBFF34F8F3B6200BF00BFFDE7AB
:1046D000194B1B68002B2AD0BB683B617B687B6150
:1046E000FB68BB61BB68052B18DCFFF7ADFE03461A
:1046F000022B09D1104B186807F1100100233A6B07
:10470000FEF712FC786212E00B4B186807F11001FB
:1047100000230022FEF708FC786208E0064B1868C8
:1047200007F1100100233A68FEF700FD78627B6A0A
:1047300018462837BD4680BDE40D002080B588B0FE
:1047400002AF78603960234B1B68DB68DB687B61F4
:104750007B6904331846FEF709FA7B6993F8283021
:1047600003F00403002B23D07B699A697B68D1187E
:104770007B683A68786900F0D3F80346002B20D0B4
:104780000023009300237A6800217869FFF788FFEF
:1047900038613B69002B14D14FF0500383F311882B
:1047A000BFF36F8FBFF34F8FFB6000BF00BFFDE70C
:1047B0007B6993F8283023F00103DAB27B6983F830
:1047C00028207B691B6A7869984700BF1837BD4667
:1047D00080BD00BFDC0D002080B584B000AF7860E4
:1047E00007F10803184600F059F8F860BB6819464D
:1047F000F86800F005F800F0D5F800BFF0E7000019
:1048000080B584B000AF78603960FFF72DFA07F10A
:104810000803184600F064F8F860BB68002B30D13C
:104820003B68002B0AD17A68FB689A4206D8FFF7EA
:1048300029FAF9687868FFF781FF24E03B68002BCC
:1048400008D0134B1B681B68002B01D1012300E02B
:1048500000233B600F4B18687A68FB68D31A3A68EC
:104860001946FEF769FFFFF70DFA0346002B0AD140
:10487000094B4FF080521A60BFF34F8FBFF36F8F19
:1048800001E0FFF7FFF900BF1037BD4680BD00BF54
:10489000E00D0020E40D002004ED00E080B485B0C0
:1048A00000AF78600D4B1B681B68002B01D1012203
:1048B00000E000227B681A607B681B68002B05D132
:1048C000064B1B68DB681B68FB6001E00023FB6094
:1048D000FB6818461437BD4680BC7047DC0D0020CD
:1048E00080B584B000AF7860FFF76AFAF8600B4BD0
:1048F0001B68FA689A4205D200F03AF97B680122F7
:104900001A6002E07B6800221A60044AFB681360A8
:10491000FB6818461037BD4680BD00BFEC0D002077
:1049200080B586B000AFF860B9607A603B60002364
:104930007B61FB68BA685A60FB68FA681A61BA68FA
:104940007B689A4212D87A683B68D21AFB689B69E6
:104950009A4202D301237B611BE0104B1A68FB686B
:10496000043319461046FEF7C9F812E07A683B682E
:104970009A4206D2BA683B689A4202D301237B610D
:1049800007E0074B1A68FB68043319461046FEF728
:10499000B5F87B6918461837BD4680BDE00D00208C
:1049A000DC0D002080B58EB002AFCEE07B68002B1E
:1049B00019DA3B1D0433FB62FB6A002B0BD14FF06D
:1049C000500383F31188BFF36F8FBFF34F8FFB61E9
:1049D00000BF00BFFDE7FB6A1B68FA6A5068FA6A0D
:1049E0009268114698477B68002BC0F2AE80FB6846
:1049F000BB62BB6A5B69002B04D0BB6A04331846F8
:104A0000FEF7B4F83B461846FFF76AFF78627B680A
:104A1000092B00F2978001A252F823F0454A0008C2
:104A2000454A0008454A0008BB4A0008CF4A00082A
:104A30001B4B0008454A0008454A0008BB4A0008CD
:104A4000CF4A0008BB6A93F8283043F00103DAB27A
:104A5000BB6A83F82820BA68BB6A9B69D118BB6817
:104A60007A6AB86AFFF75CFF0346002B6CD0BB6A1A
:104A70001B6AB86A9847BB6A93F8283003F00403AE
:104A8000002B61D0BA68BB6A9B691A44002300936B
:104A900000230021B86AFFF703FE38623B6A002B4F
:104AA00052D14FF0500383F31188BFF36F8FBFF3E0
:104AB0004F8FBB6100BF00BFFDE7BB6A93F8283092
:104AC00023F00103DAB2BB6A83F828203DE0BB6A19
:104AD00093F8283043F00103DAB2BB6A83F8282048
:104AE000BA68BB6A9A61BB6A9B69002B0BD14FF015
:104AF000500383F31188BFF36F8FBFF34F8F7B6138
:104B000000BF00BFFDE7BB6A9A697B6AD1187B6A68
:104B10007A6AB86AFFF704FF17E0BB6A93F8283097
:104B200003F00203002B03D1B86A00F087FB0CE00E
:104B3000BB6A93F8283023F00103DAB2BB6A83F82A
:104B4000282002E000BF00E000BF084B1B68391DB1
:104B500000221846FEF788FB0346002B7FF426AFA1
:104B600000BF00BF3037BD4680BD00BFE40D002050
:104B700080B588B002AF49E02E4B1B68DB681B682C
:104B80003B612C4B1B68DB68DB68FB60FB68043314
:104B90001846FDF7EBFFFB681B6AF8689847FB684F
:104BA00093F8283003F00403002B2FD0FB689B6997
:104BB0003A691344BB60BA683B699A420ED9FB68F4
:104BC000BA685A60FB68FA681A611A4B1A68FB687F
:104BD000043319461046FDF791FF17E000230093B8
:104BE00000233A690021F868FFF75AFD78607B6876
:104BF000002B0BD14FF0500383F31188BFF36F8F5D
:104C0000BFF34F8F3B6000BF00BFFDE7094B1B6840
:104C10001B68002BB0D1074B1B687B61064B1B68E0
:104C2000044A1360044A7B69136000BF1837BD460D
:104C300080BD00BFDC0D0020E00D002080B582B0FB
:104C400002AF00F02BF9154B1B68002B20D1144844
:104C5000FDF706FF1348FDF703FF134B104A1A60D8
:104C6000124B104A1A6000230093114B114A102175
:104C70000A20FEF70FF80346084A1360074B1B682B
:104C8000002B05D0054B1B680B491846FEF702FDAB
:104C900000F034F900BFBD4680BD00BFE40D002028
:104CA000B40D0020C80D0020DC0D0020E00D002018
:104CB000900E0020F00D0020EC56000880B485B066
:104CC00000AFF860B9607A60FB68043BFB60FB688A
:104CD0004FF080721A60FB68043BFB60BB6823F0F6
:104CE0000102FB681A60FB68043BFB60084AFB6832
:104CF0001A60FB68143BFB607A68FB681A60FB680B
:104D0000203BFB60FB6818461437BD4680BC7047EB
:104D1000154D000880B485B000AF00237B60124BB6
:104D20001B68B3F1FF3F0BD04FF0500383F31188A2
:104D3000BFF36F8FBFF34F8FFB6000BF00BFFDE776
:104D40004FF0500383F31188BFF36F8FBFF34F8F82
:104D5000BB6000BF00BF7B68002BFCD000BF00BF62
:104D60001437BD4680BC70470C00002000000000D6
:104D7000074B19680868B0E8F00F80F30988BFF3A3
:104D80006F8F4FF0000080F311884EF00D0E7047CA
:104D9000B408002000BF00BF06480068006880F328
:104DA000088862B661B6BFF34F8FBFF36F8F00DF25
:104DB00000BF00BF08ED00E080B584B000AF324B0B
:104DC000FB60FB681B78DBB27B60FB68FF221A701C
:104DD000FB681B78DBB2FB70FB78DBB203F050039F
:104DE000DAB22A4B1A702A4B07221A6009E0284BC4
:104DF0001B68013B264A1360FB78DBB25B00DBB229
:104E0000FB70FB78DBB203F08003802BEFD0204BEC
:104E10001B68C3F10703042B0BD04FF0500383F33F
:104E20001188BFF36F8FBFF34F8FBB6000BF00BF10
:104E3000FDE7174B1B681B02154A1360144B1B68D8
:104E400003F4E063124A13607B68DAB2FB681A70FD
:104E5000104B1B680F4A43F4700313600D4B1B6823
:104E60000C4A43F07043136000F0B8F80A4B00227C
:104E70001A60FFF791FFFFF76BF8FFF74BFF002376
:104E800018461037BD4680BD00E400E0E00E00206B
:104E9000E40E002020ED00E00C00002080B483B080
:104EA00000AF4FF0500383F31188BFF36F8FBFF350
:104EB0004F8F7B6000BF0F4B1B6801330D4A13609F
:104EC0000C4B1B68012B10D10B4B1B68DBB2002B6A
:104ED0000BD04FF0500383F31188BFF36F8FBFF3F4
:104EE0004F8F3B6000BF00BFFDE700BF0C37BD46E2
:104EF00080BC70470C00002004ED00E080B483B05B
:104F000000AF124B1B68002B0BD14FF0500383F303
:104F10001188BFF36F8FBFF34F8F7B6000BF00BF5F
:104F2000FDE70A4B1B68013B084A1360074B1B68EF
:104F3000002B05D100233B603B6883F3118800BF41
:104F400000BF0C37BD4680BC704700BF0C0000207E
:104F5000EFF30980BFF36F8F0D4B1A6820E9F00F54
:104F600010602DE908404FF0500080F31188FEF7E3
:104F7000EFFF4FF0000080F31188BDE8084019688A
:104F80000868B0E8F00F80F30988BFF36F8F7047AF
:104F9000B408002000BF00BF80B582B000AF4FF062
:104FA000500383F31188BFF36F8FBFF34F8F7B6084
:104FB00000BFFEF713FF0346002B03D0064B4FF054
:104FC00080521A6000233B603B6883F3118800BF66
:104FD00000BF0837BD4680BD04ED00E080B400AFDF
:104FE0000A4B00221A600A4B00221A60094B1B6808
:104FF000094AA2FB03239B09084A013B1360034BA8
:1050000007221A6000BFBD4680BC704710E000E078
:1050100018E000E000000020D34D621014E000E032
:1050200080B485B000AFEFF30583FB60FB680F2B06
:1050300015D9174AFB6813441B78FB72154B1B7874
:10504000FA7A9A420BD24FF0500383F31188BFF3E0
:105050006F8FBFF34F8F7B6000BF00BFFDE70E4B2C
:105060001B6803F4E0620D4B1B689A420BD94FF0AA
:10507000500383F31188BFF36F8FBFF34F8F3B60F3
:1050800000BF00BFFDE700BF1437BD4680BC7047BE
:10509000F0E300E0E00E00200CED00E0E40E002064
:1050A00080B58AB000AF78600023FB61FEF7DCFDBD
:1050B0005C4B1B68002B01D100F024F95A4B1A6895
:1050C0007B681340002B40F095807B68002B1ED03E
:1050D00008227B6813447B607B6803F00703002B86
:1050E00015D07B6823F0070308337B607B6803F0EF
:1050F0000703002B0BD04FF0500383F31188BFF34D
:105100006F8FBFF34F8F7B6100BF00BFFDE77B68F0
:10511000002B6FD0454B1B687A689A426AD8444B83
:105120003B62434B1B687B6204E07B6A3B627B6AA9
:105130001B687B627B6A5B687A689A4203D97B6AE8
:105140001B68002BF1D1374B1B687A6A9A4251D009
:105150003B6A1B6808221344FB617B6A1A683B6A3E
:105160001A607B6A5A687B68D21A08235B009A42ED
:1051700020D97A6A7B681344BB61BB6903F00703DB
:10518000002B0BD04FF0500383F31188BFF36F8FC8
:10519000BFF34F8F3B6100BF00BFFDE77B6A5A68DA
:1051A0007B68D21ABB695A607B6A7A685A60B869B0
:1051B00000F00AF91D4B1A687B6A5B68D31A1B4A18
:1051C00013601A4B1A681B4B1B689A4203D2174B89
:1051D0001B68184A13607B6A5A68134B1B681A4392
:1051E0007B6A5A607B6A00221A60134B1B6801338A
:1051F000114A1360FEF746FDFB6903F00703002B1D
:105200000BD04FF0500383F31188BFF36F8FBFF3C0
:105210004F8FFB6000BF00BFFDE7FB6918462837D2
:10522000BD4680BDF01A0020041B0020F41A0020A7
:10523000E81A0020F81A0020FC1A002080B586B079
:1052400000AF78607B687B617B68002B4FD00823C0
:105250005B427A6913447B617B693B613B695A68B5
:10526000254B1B681340002B0BD14FF0500383F3E9
:105270001188BFF36F8FBFF34F8FFB6000BF00BF7C
:10528000FDE73B691B68002B0BD04FF0500383F305
:105290001188BFF36F8FBFF34F8FBB6000BF00BF9C
:1052A000FDE73B695A68144B1B681340002B1ED066
:1052B0003B691B68002B1AD13B695A680E4B1B686F
:1052C000DB431A403B695A60FEF7CEFC3B695A68E3
:1052D0000A4B1B681344094A1360386900F074F8DC
:1052E000074B1B680133064A1360FEF7CBFC00BF77
:1052F0001837BD4680BD00BF041B0020F41A0020F3
:10530000001B002080B485B000AF4FF44063BB6049
:10531000274BFB60FB6803F00703002B0CD0FB68F6
:105320000733FB60FB6823F00703FB60BA68FB6888
:10533000D31A1F4A1344BB60FB687B601D4A7B681D
:1053400013601C4B00225A607B68BA681344FB60F0
:105350000822FB689B1AFB60FB6823F00703FB60D5
:10536000FB68154A1360144B1B6800225A60124BED
:105370001B6800221A607B683B603B68FA68D21A9F
:105380003B685A600C4B1A683B681A603B685B6864
:105390000A4A13603B685B68094A1360094B4FF087
:1053A00000421A6000BF1437BD4680BC704700BF82
:1053B000E80E0020E81A0020F01A0020F81A002059
:1053C000F41A0020041B002080B485B000AF786080
:1053D000274BFB6002E0FB681B68FB60FB681B68F7
:1053E0007A689A42F7D8FB68BB60FB685B68BA686A
:1053F00013447A689A4208D1FB685A687B685B68F4
:105400001A44FB685A60FB687B607B68BB607B6802
:105410005B68BA681A44FB681B689A4218D1FB683B
:105420001A68144B1B689A420DD07B685A68FB6857
:105430001B685B681A447B685A60FB681B681A68C3
:105440007B681A6008E00B4B1A687B681A6003E0FF
:10545000FB681A687B681A60FA687B689A4202D017
:10546000FB687A681A6000BF1437BD4680BC70477D
:10547000E81A0020F01A002003460244934200D1AB
:10548000704703F8011BF9E7294B70B51B68044608
:1054900083424BD0C369ABB1DB686BB10025E369D4
:1054A000DB68595900293BD10435802DF7D1E369D8
:1054B0002046D96800F072F8E369196811B12046F6
:1054C00000F06CF8616911B1204600F067F8E169FD
:1054D00011B1204600F062F8216B11B1204600F0B6
:1054E0005DF8616B11B1204600F058F8A16B11B165
:1054F000204600F053F8A16C11B1204600F04EF8A0
:10550000616C11B1204600F049F8E16A11B1204602
:1055100000F044F8236A4BB12046BDE870401847BC
:105520000E68204600F03AF83146BBE770BD00BF78
:105530001000002070B500260C4D0D4C641BA4100B
:10554000A64209D100F07EF800260A4D0A4C641BE1
:10555000A410A64205D170BD55F8043B984701360A
:10556000EEE755F8043B98470136F2E7A4570008E8
:10557000A4570008A4570008A857000870477047B0
:105580000A44914200F1FF3300D1704710B511F881
:10559000014B914203F8014FF9D110BD38B50546D2
:1055A000002940D051F8043C0C1F002BB8BFE41870
:1055B00000F03CF81C4A136833B963601460284655
:1055C000BDE8384000F038B8A34208D92068211857
:1055D0008B4201BF19685B6809182160EDE71A4624
:1055E0005B680BB1A342FAD911685018A0420BD1E5
:1055F00020680144501883421160E0D118685B684C
:10560000084410605360DAE702D90C232B60D6E718
:10561000206821188B4201BF19685B680918216056
:1056200063605460CBE738BD441C00200148FFF79D
:10563000A5BF00BF401C00200148FFF7A0BF00BF6E
:10564000401C0020F8B500BFF8BC08BC9E4670475F
:0C565000F8B500BFF8BC08BC9E467047CF
:10565C0064656661756C745461736B006D7954612B
:10566C00736B3031000000006D795461736B303214
:10567C00000000006D7942696E61727953656D307E
:10568C003100000044656661756C74205461736B65
:10569C0020697320737461727465640D0A000000D4
:1056AC0044656661756C74205461736B206973205A
:1056BC00656E6465640D0A005461736B2030322092
:1056CC00697320737461727465640D0A00000000C4
:1056DC0049444C4500000000546D72205376630021
:1056EC00546D7251000000005C5600080000000070
:1056FC00000000000000000000000000000200009C
:10570C0018000000000000000000000068560008AF
:10571C00000000000000000000000000000000007D
:10572C000002000028000000000000000000000043
:10573C00745600080000000000000000000000008B
:10574C000000000000020000290000000000000022
:10575C00000000008056000800000000000000005F
:10576C000000000000000000000000000102030423
:10577C0006070809000000000102030402030405E7
:10578C00060708090A0B0C0D0E0F10100102000081
:08579C00B4A9FF7F0100000029
:0457A40035010008C3
:0457A80011010008E3
:1057AC0000127A001000000001000000AAAAAAAAA8
:1057BC001400002000000000081B0020701B0020BB
:1057CC00D81B0020000000000000000000000000BA
:1057DC0000000000000000000000000000000000BD
:1057EC0000000000000000000000000000000000AD
:1057FC00000000000000000000000000000000009D
:040000050800062DBC
:00000001FF
